:020000040800F2
:10000000005000205D190008C1170008C51700083E
:10001000C9170008CD170008D1170008000000001C
:10002000000000000000000000000000D5170008DC
:10003000D917000800000000DD170008E1170008CC
:10004000A5190008A5190008A5190008A519000898
:10005000A5190008A5190008A5190008A519000888
:10006000A5190008A5190008A5190008A519000878
:10007000A5190008A5190008A5190008E51700082A
:10008000A5190008A5190008A5190008F11700080E
:10009000FD1700080918000815180008A519000820
:1000A000A5190008A5190008A5190008A519000838
:1000B000A5190008A5190008A5190008A519000828
:1000C000A5190008A5190008A5190008A519000818
:1000D000A519000821180008A5190008A51900088D
:1000E000A5190008A5190008A519000800000000BE
:1000F0000000000000000000000000000000000000
:0C01000000000000000000005FF808F1A3
:10010C0010B5054C237833B9044B13B10448AFF345
:10011C0000800123237010BD440400200000000067
:10012C00983D000808B5034B1BB103490348AFF3D6
:10013C00008008BD0000000048040020983D000825
:10014C0003685A004CBF43F0004323F000431844AB
:10015C00704700BF2DE9F84339B34F1E04461546CE
:10016C003E464FF0000808EB060101EBD171491037
:10017C0004EBC1094846FFF7E3FF0346C80008300B
:10018C008F4220440BD0AB420BD8FFF7D9FF01387C
:10019C00A84201F10108E6D34846BDE8F883AB421A
:1001AC00FAD9884501D04E1EDDE74FF000094846CC
:1001BC00BDE8F883012807D0022807D0044B00289B
:1001CC000CBF184600207047024870470248704721
:1001DC00B1080008B5080008B908000830B5244B70
:1001EC00044683B08D1E3BB3284601A9AFF30080B3
:1001FC00E8B101992A46FFF7ADFF0146B8B1FFF708
:10020C009FFF4B68A064012B2ED0002B27DB081D11
:10021C00FFF796FF0023C4E913030368002B12DBDE
:10022C00FFF78EFF03460020236103B030BD00238F
:10023C000920236103B030BD0E4B0F491846C91A73
:10024C00C9100191D6E7C3F30360FFF7B3FF002891
:10025C00034614BF00200920236103B030BD0123E5
:10026C00081DC4E91303D8E7002305202361DCE74C
:10027C0000000000043E0008543F0008036810B55D
:10028C00DA07044606D49B0700F1480009D500F0B4
:10029C005DFC2368590709D51A070ED5DB0613D563
:1002AC0010BD00F04BFC23685907F5D404F1D000C5
:1002BC0000F054FC23681A07F0D404F5A87000F081
:1002CC0055FC2368DB06EBD404F5E870BDE8104060
:1002DC0000F090BC092070470346006800B1184438
:1002EC00704700BF704700BF70B504460E462046ED
:1002FC00316CFFF773FF054698B9D6F840C032460B
:10030C00214601202369C4F814C098470828EED070
:10031C00072806D12846316CFFF7E4FF301D00F0AA
:10032C0001FC03F0EFFB00BF2DE9F0474FF0000A92
:10033C00ADF5727D0DF10C0E01F1040CC768D0F80F
:10034C00188006461446BCE80F00AEE80F00BCE867
:10035C000F00AEE80F00BCE80F00AEE80F009CE801
:10036C000F0002AD8EE80F00C5F800A021E02B6C49
:10037C004FF4F072294673617AA800F06FFE314693
:10038C00504633697AAA9847889C82466C643346F7
:10039C00324649460120CDE90058B8470446F0B929
:1003AC004FF4F07228467AA900F058FEBAF1080F03
:1003BC001BD13046296CFFF711FF04F109095FFAD4
:1003CC0089FA04460028D2D0A96B334669643246B8
:1003DC000120CDE900584AF01001B84700B10924BA
:1003EC0020460DF5727DBDE8F087BAF1070FF6D106
:1003FC002046296CFFF776FF03A800F093FB00BFA3
:10040C00406C7047F0B54FF0FF37CB6BF9B00B6415
:10041C0001AC01F1040C0E460546BCE80F000FC4FC
:10042C00BCE80F000FC4BCE80F000FC49CE80F0021
:10043C0084E80F00009706E06A4629462B69984726
:10044C000828044608D128461099FFF7C7FE002853
:10045C00F2D0092079B0F0BD6846FFF70FFF062CEB
:10046C00F7D131462846FFF73FFF00BF10B41446C2
:10047C008461DC6BC16000221C64194610BC53E71C
:10048C0070B54369C6680B64AEB90A460369044685
:10049C000D46014602209847072805D008280FD1A1
:1004AC0029462046FFF720FF3046296CFFF71AFF3C
:1004BC00281D00F037FB0122FFF736FF03F022FB6B
:1004CC0003F020FBC2682AB1D1F83CC00022C1F86D
:1004DC0040C029E796E700BF704700BF836801461C
:1004EC000BB1012018477047012912D009D873B9F4
:1004FC000F2A0CD800EB820042681846009B1A6049
:10050C0070470339012994BF012002207047022053
:10051C0070470846704700BF002300B585B00A46F7
:10052C0003A900911946FFF7DFFF039805B05DF8AA
:10053C0004FB00BF012912D009D873B90F2A0CD8BB
:10054C00009900EB82020968184651607047033924
:10055C00012994BF012002207047022070470846F1
:10056C00704700BF002310B584B003AC0392009415
:10057C000A461946FFF7DEFF04B010BD70B54FF008
:10058C00FF36D36BADF50E7D13640DF15C0E02F1ED
:10059C00040C05460C46BCE80F00AEE80F00BCE8A6
:1005AC000F00AEE80F00BCE80F00AEE80F009CE8AF
:1005BC000F008EE80F00169612E00C2116A86A4662
:1005CC00FFF7D0FF214616A8A84778B9694608203E
:1005DC00049B16AA98470528064608D0092805D07A
:1005EC0068462699FFF7FAFD0028E6D0092616A8DA
:1005FC00FFF744FE30460DF50E7D70BD2DE9F04F32
:10060C001E46CC6C89B054F8043B0D46174600F0DE
:10061C0003080694002E79D002228DF81C201A0CA7
:10062C008DF81D201B04D2B2059304EB82042B6DB4
:10063C00B8F1020F08BFAC6B13F001030CD03846B5
:10064C0005A900F071FB18B9082009B0BDE8F08FBE
:10065C00092009B0BDE8F08FD4F800A0BAF1000F62
:10066C00EDD0019300F008030293022E4AD0B4F8A7
:10067C0000A0B4F802900434AA6C0F21384629F07B
:10068C00010B9344FFF748FF834539D82AF0010248
:10069C005A44824294BF002001204FEA490303F0E0
:1006AC0002030AF0010A43EA0A03012B49D0022B88
:1006BC0032D0002BCCD1B8F1000F02D0002840F082
:1006CC00CE800434D4F800A0BAF1000FCDD1384656
:1006DC0005A900F029FB0028BAD1019B002BB3D04F
:1006EC000F213846FFF718FF0E2102463846FFF758
:1006FC0039FF38460F216A4AFFF734FF0720A8E775
:10070C000020CAE7D4F804900834B5E71B0205931F
:10071C000323ADF81C308AE7236823F0004BB8F1B3
:10072C00000F45D128B1029A002A5CD0BBF1000F12
:10073C0074D0002B00DA04340BF1010B04EB8B04A6
:10074C00C0E7B8F1000F19D1B0B163682268991CE9
:10075C004FEAD2723FF47CAF05F15801013304919A
:10076C0000F09180201DFFF7B7FD04AB0146284631
:10077C00AFF3008000285CD10834A3E70D21384684
:10078C00D5F82090FFF7C8FE8145F5D1AB6A9C42A5
:10079C00F2D12046FFF7D4FC0F2102463846FFF772
:1007AC00E1FE38462A460021FFF7DCFE072050E721
:1007BC000D213846D5F82090FFF7AEFE814501D0CB
:1007CC002368B6E7AB6A9C42FAD104230022C5E940
:1007DC000B23E318C5F828B06B632368002B5ADB96
:1007EC0001230193A8E705F15803CDF80C8091463D
:1007FC00B04604F1040A1E460EE050460496FFF77C
:10080C006BFD0022014604AB284609F101090AF1EF
:10081C00040AAFF30080E8B9D945EED10D21384672
:10082C00FFF77AFE0346049A0620C5E909242B62D9
:10083C000FE781460D213846FFF76EFEB9F1020F26
:10084C00286225D12B46049A43F82C2F6B62062084
:10085C00AC62FEE646462368DDF80C8069E720466C
:10086C00FFF76EFC02460434AC6328461446AFF323
:10087C00008000283FF4ECAE384622460F21FFF7EB
:10088C0071FE0720E5E60D213846FFF745FE28628C
:10089C00049B6B62DBE70BF1010004EB800079E752
:1008AC00000000000023A9E60123A7E60223A5E629
:1008BC002DE9F043064615461C46C3B0042900F248
:1008CC00B880DFE801F09C56B62D0300002C40F0F8
:1008DC00B080102A00F2AD800368D80600F1F180D8
:1008EC0020AF384600F090F9012438460023B16B54
:1008FC0004FA03F22A4203F1010305D00A4652F826
:10090C0004CB1146C0F800C0042B00F10400EFD159
:10091C003846B16300F06EF9002043B0BDE8F083B7
:10092C00032C40F0868094B204EB1243102B4FEA58
:10093C0012457ED803681F0700F1CB8020AF3846E4
:10094C0000F036F9B26B07EBC50154B10B4601EB65
:10095C00C401D01AE4001D5843F8045B8B42FAD151
:10096C0022443846B26300F001F9002043B0BDE8E0
:10097C00F083012C4FEA124895B256D0052C58D171
:10098C0008EB0509B9F1200F53D8B8F10F0F73D943
:10099C00A946002D40F08480B36B65B320AF4FF0B7
:1009AC00000907EBC807043F03EBC50553F8041B0C
:1009BC00AB4247F8041FF9D1B9F1000F0FD06F46C5
:1009CC004146102938BF102107EBC101843903EBD4
:1009DC00C90553F8040BAB4241F8040FF9D1012CB3
:1009EC007FD0B8F10F0FB56342D9B9F1000F02D027
:1009FC00684600F0B3F8002043B0BDE8F083C4B9FA
:100A0C0023460124826B371DA8B204FA03F101427C
:100A1C001CBF52F8041B47F823100133102BF4D1E0
:100A2C0015F40050E7D1B26304E008EB0503102B7A
:100A3C0003D9022043B0BDE8F083B8F10F0FF8D80A
:100A4C003368DA0706D5304623F0030340F8483BF9
:100A5C0000F078F820AF384600F074F8B36B002D36
:100A6C009DD11D4604353846B56300F067F8C2E7E2
:100A7C0020A800F06BF8B8E7B9F1100F3FD9A9F135
:100A8C0010093368D90708D5304623F0010343F029
:100A9C00020340F8483B00F05DF8B9F1000F31D08B
:100AAC0033685A071FD4B8F10F0F24D96F46C8F119
:100ABC001005384600F056F8002DB36B80DD20AFE2
:100ACC006FE723F01003336006F5E87000F09CF834
:100ADC0006E723F00803036000F5A87000F068F83F
:100AEC002CE720AFBEE7304623F0040340F8D03BA0
:100AFC0000F038F8D7E720A800F02CF8D6E74FF034
:100B0C000009BEE7B8F10F0F3FF646AF20AF3846ED
:100B1C0000F020F8B36B002D7FF441AF384600F0A5
:100B2C0015F868E700F1340191E838009C46A646B8
:100B3C004CF8045D90E8FF0FE54600BD90EC210BEE
:100B4C00704700BF80EC210B704700BF90EC200B6E
:100B5C00704700BF80EC200B704700BFD0EC200B1F
:100B6C00704700BFC0EC200B704700BFF0EC0201D7
:100B7C00F0EC0211F0EC0221F0EC0231F0EC02414D
:100B8C00F0EC0251F0EC0261F0EC0271F0EC02813D
:100B9C00F0EC0291F0EC02A1F0EC02B1F0EC02C12D
:100BAC00F0EC02D1F0EC02E1F0EC02F1704700BF86
:100BBC00E0EC0201E0EC0211E0EC0221E0EC02318D
:100BCC00E0EC0241E0EC0251E0EC0261E0EC02717D
:100BDC00E0EC0281E0EC0291E0EC02A1E0EC02B16D
:100BEC00E0EC02C1E0EC02D1E0EC02E1E0EC02F15D
:100BFC00704700BFB0FC0181B0FC0191B0FC01A1B9
:100C0C00B0FC01B1704700BFA0FC0181A0FC0191B8
:100C1C00A0FC01A1A0FC01B1704700BFEC4600B5DF
:100C2C002DE900502DE9FF1F4FF000032DE90C00BA
:100C3C0001A9FFF7E7FBDDF840E012B0704700BFF9
:100C4C00EC4600B52DE900502DE9FF1F4FF00003D5
:100C5C002DE90C0001A9FFF713FCDDF840E012B000
:100C6C00704700BFEC4600B52DE900502DE9FF1F81
:100C7C004FF000032DE90C0001A9FFF723FCDDF870
:100C8C0040E012B0704700BFEC4600B52DE90050B3
:100C9C002DE9FF1F4FF000032DE90C0001ABFFF70E
:100CAC00E5FBDDF840E012B0704700BFEC4600B544
:100CBC002DE900502DE9FF1F4FF000032DE90C002A
:100CCC0001AAFFF75BFCDDF840E012B0704700BFF3
:100CDC00027A03467AB9427AA2B14FF0030C41680A
:100CEC00013A427208680A1D5A60020283F808C071
:100CFC00000E1A6070470068013A1A7202021A60FC
:100D0C00000E7047B0207047002300B585B003A9D2
:100D1C0000910C221946FFF7E7FB039805B05DF82C
:100D2C0004FB00BFF0E700BF2DE9F0434FF00008D3
:100D3C0005460E4685B03046FFF7CAFFB02804467C
:100D4C0000F0BA80070620D500F0F003802B4DD0C0
:100D5C00902B36D0A02B60D0B02B73D0C02B00F0D2
:100D6C008A8000F0F803D02B0BD100F0070201327F
:100D7C0005230121284642F40022FFF799FD0028A3
:100D8C00D9D0092005B0BDE8F0838300DBB21F1D6C
:100D9C0000230DF10C0919460D222846CDF80090C0
:100DAC00FFF7A2FB039B60064CBFDF1BFF18002361
:100DBC000D2228461946CDF800900397FFF7BAFB91
:100DCC00B9E700F00D030D2BDBD0002303AF194660
:100DDC0000F00F0200972846FFF786FB00230D2238
:100DEC00284619460097FFF7A5FBA4E73046FFF706
:100DFC006FFF24022043B0F5004FC2D00023040142
:100E0C0019462846A2B2FFF753FD0028B9D114F4B5
:100E1C00004F18BF4FF001088DE7C3434FF47F62BA
:100E2C0003F007031A410023010702F47F6248BF55
:100E3C0042F4804228461946FFF73AFD00283FF459
:100E4C007AAF9EE7B1283CD0B22800F0B080B3282E
:100E5C004AD000F0FC03B42B93D0012300F007021E
:100E6C001A442846194642F40022FFF721FD0028B7
:100E7C003FF461AF85E7C6284FD0C72861D000F09A
:100E8C00F803C02B70D0C8287CD0C9287FF479AF68
:100E9C003046FFF71DFF05230246012128461403A7
:100EAC0002F00F0204F470240A442243FFF700FD01
:100EBC0000283FF440AF64E7B8F1000F1CD00020CD
:100ECC0060E73046FFF704FF024600283FF459AFB5
:100EDC0010F0F0037FF455AF19462846FFF7E8FCF5
:100EEC0000283FF428AF4CE73046FFF7F1FE012312
:100EFC00024619462846D2E703AC43460E22414629
:100F0C0028460094FFF7F0FA43460F222846414644
:100F1C000094FFF70FFB404634E73046FFF7D8FE4E
:100F2C0002460323140302F00F0204F4702401326E
:100F3C00284619462243FFF7BBFC00283FF4FBAEC2
:100F4C001FE73046FFF7C4FE024600283FF419AFF6
:100F5C0010F0F0037FF415AF04212846FFF7A8FC2E
:100F6C0000283FF4E8AE0CE7032300F00F02013237
:100F7C002846194642F42022FFF79AFC00283FF439
:100F8C00DAAEFEE63046FFF7A3FE0246012102F080
:100F9C00F00402F00F0210340A440523284642EAFA
:100FAC000432FFF785FC00283FF4C5AEE9E60023C8
:100FBC000DF10C090D2219462846CDF80090FFF7CB
:100FCC0093FA3046FFF784FE02064FF002040CD56C
:100FDC00039B00F07F00A040184403903046FFF7BD
:100FEC0077FE030604F10704F2D4039B00F07F02A2
:100FFC00A24003F501731A440023039228460D22E4
:10100C001946CDF80090FFF795FA94E60B464FF091
:10101C00030C00B5C26C1846536885B008320292B6
:10102C0001A91A0E1B028DF80CC001938DF80D202E
:10103C00FFF77AFE05B05DF804FB00BF08B5FFF7BB
:10104C0071FE806C08BD00BF08B5FFF76BFEC06C6D
:10105C00C379023300EB830008BD00BF844641EA2C
:10106C00000313F0030349D1403A23D30B68036008
:10107C004B6843608B688360CB68C3600B6903610A
:10108C004B6943618B698361CB69C3610B6A0362F2
:10109C004B6A43628B6A8362CB6AC3620B6B0363DA
:1010AC004B6B43638B6B8363CB6BC36340304031BF
:1010BC00403ADBD230320BD30B6803604B68436091
:1010CC008B688360CB68C36010301031103AF3D258
:1010DC000C3205D351F8043B40F8043B043AF9D2E6
:1010EC00043208D0D2071CBF11F8013B00F8013BB9
:1010FC0001D30B8803806046704700BF082A13D3C6
:10110C008B07B1D010F00303AED0C3F10403D21A95
:10111C00DB071CBF11F8013B00F8013BA4D331F8ED
:10112C00023B20F8023B9FE7043AD9D3013A11F86D
:10113C00013B00F8013BF9D20B7803704B784370FC
:10114C008B7883706046704710B5204B8CB01B7841
:10115C0002AC012B4FF00001234605AA09D000F088
:10116C00EFFD20B9089B13B9079B042B1BD00CB0C7
:10117C0010BD00F0E5FD0028F9D1DDE9073213437D
:10118C00F5D1099B082BF2D1BDF810300599ADF8BB
:10119C00003094E80C000E4802F082FB80210D48D0
:1011AC0001F0B4FAE3E7099B0A2BE0D1BDF810304B
:1011BC000699ADF8003094E80C00054802F070FB7D
:1011CC008021044801F0A2FAD1E700BF04000020FE
:1011DC00880D0020000C014010B5204B8CB0197804
:1011EC0002AC012923460BD0012105AA00F0A8FD71
:1011FC0020B9089B13B9079B042B1CD00CB010BD55
:10120C0005AA00F09DFD0028F8D1DDE90732134353
:10121C00F4D1099B0A2BF1D1BDF810300599ADF82A
:10122C00003094E80C000E4802F03AFB80210D4887
:10123C0001F06CFAE2E7099B0A2BDFD1BDF8103004
:10124C000699ADF8003094E80C00054802F028FB34
:10125C008021044801F05AFAD0E700BF04000020B6
:10126C00880D0020000C01402DE9704F0024002552
:10127C004FF0000A4FF0010B4FF001084FF00E0930
:10128C00174E8AB069463046CDE90045CDE9024596
:10129C00CDE90445CDE906ABCDE9088900F048FC61
:1012AC000122012369463046CDE90423CDE906AB82
:1012BC00CDE90889CDE90045CDE9024500F038FCBF
:1012CC00304600F0B3FC33685A6942F002025A61AE
:1012DC005A6942F010025A610AB0BDE8708F00BF23
:1012EC00B40F002003460A460148194602F008BA1A
:1012FC00740900200146014802F04EBA740900201E
:10130C000146014802F056BA740900200146014812
:10131C0002F05EBA7409002070B500F099F908214A
:10132C002D4801F0E9F9102104462B4801F0E4F9AD
:10133C0020210546284801F0DFF9002814BF0123BD
:10134C000223264E337000F069F9FDB90CBB28213D
:10135C004FF400324FF480032148C0E90244846109
:10136C008483C0E904231F4B4160036000F05EFBE3
:10137C0070BB00F069FA31781B4802F08FFA1B48F9
:10138C0002F0B6F9BDE87040FFF76EBF64B91021EA
:10139C00DEE7134808214FF400324FF48003C0E914
:1013AC00025585618583DCE7002304244FF400316A
:1013BC004FF480020A48C0E90143C0E90331C0E997
:1013CC0005238383074B036000F030FB0028D0D04B
:1013DC0000F0CCF9CDE700BF000C01400400002068
:1013EC00B40F002000640040880D00207409002018
:1013FC002DE9F047042600278EB0DFF88090204DB1
:10140C00DFF8808002AC22466946284602F06CFA6E
:10141C000028F8D094E8070005AB03C399F8001036
:10142C00DDF800C0012918481A8015D04FF0000AC9
:10143C004FF0080E01AB05AA08A9CDE90A67CDF853
:10144C0020C08DF834A0CDF830E000F021FC402114
:10145C00404601F05BF9D6E700220023002108206A
:10146C00CDE90A230C908DF8341001AB05AA08A91C
:10147C000548CDF820C000F00BFCE8E70400002084
:10148C00880D0020000C0140B40F0020F8B51B4E55
:10149C001B4C1C4D3121304602F0A8F822461A494B
:1014AC00304602F029FB194F284602F059F8224623
:1014BC002846174902F020FB2A463846154D164996
:1014CC0002F00CF922463846144902F015FB394655
:1014DC0032462846124E02F027FA22462846114977
:1014EC0002F00AFB29460222304602F0C7F92246D6
:1014FC003046BDE8F8400C4902F0FEBA70080020F6
:10150C000000002060040020C5360008740900208B
:10151C0085350008900D002020100020F9360008B9
:10152C00880D0020513900089D38000810B50023A3
:10153C0004244FF400314FF480020948C0E9014300
:10154C00C0E90331C0E905238383064B036000F037
:10155C006DFA00B910BDBDE8104000F007B900BF2E
:10156C00B40F002000640040D0B50024294B026861
:10157C0086B09A42CDE90244CDE9044401D006B0CC
:10158C00D0BD4FF4006603F5D633DA6902A942F0F8
:10159C000072DA61DA69204802F000720092009A57
:1015AC009A69022742F004029A619B69029603F041
:1015BC0004030193019B4FF4805600F08FFF03232B
:1015CC0002A915480593CDE9026700F087FF224672
:1015DC002146132000F096FD132000F0D1FD224689
:1015EC002146142000F08EFD142000F0C9FD224687
:1015FC002146152000F086FD152000F0C1FD224685
:10160C002146162000F07EFD162000F0B9FD06B034
:10161C00D0BD00BF006400400008014000220B4B0D
:10162C0000B5596983B041F0010159615B690F2024
:10163C0003F0010301931146019B00F063FD0F20A1
:10164C0003B05DF804EB00F09BBD00BF001002403E
:10165C00F0B5002489B0CDE90444CDE906441D4B16
:10166C001D4D9C69012244F020049C619C69284614
:10167C0004F020040194019C9C69C02144F00404F2
:10168C009C619C69382604F004040294029C9C69B9
:10169C00002744F008049C619B69002403F00803B4
:1016AC000393039B01F02EF80223284604A906930A
:1016BC00CDE9046700F012FFC02201232846022561
:1016CC0004A9CDE90645CDE9042300F007FF09B0D4
:1016DC00F0BD00BF00100240000C014000230122AD
:1016EC00D0B5012090B04FF480310224CDE90B33FA
:1016FC00CDE90133CDE90333089300930A920993A2
:10170C004FF480324FF4E013CDE9060106A8CDE981
:10171C000E230D9401F004F808B172B6FEE70346EF
:10172C000F260227002204934FF48063214668465B
:10173C00CDE90067CDE9022301F0E2F908B172B6F8
:10174C00FEE710B0D0BD00BF08B500F04BF9FFF7B5
:10175C00C5FFFFF7E1FDFFF74BFEFFF779FFFFF742
:10176C005DFFFFF7E3FE00F06FF8FEE772B6FEE7F1
:10177C000E4B82B09A690E4942F001029A619A6945
:10178C0002F001020092009ADA6942F08052DA61AA
:10179C00DB6903F080530193019B4B6823F0E063FA
:1017AC0043F000734B6002B0704700BF0010024062
:1017BC0000000140FEE700BFFEE700BFFEE700BFF0
:1017CC00FEE700BFFEE700BF704700BF704700BFD9
:1017DC00704700BF00F018B9014800F0E9BD00BF28
:1017EC00DC0F0020014800F051BB00BFB40F0020FB
:1017FC00014800F04BBB00BFB40F0020014800F0C3
:10180C0045BB00BFB40F0020014800F03FBB00BF38
:10181C00B40F0020014801F091BC00BF2010002043
:10182C000120704708B502F081F9162203464FF0EB
:10183C00FF301A6008BD00BF08B502F077F9162317
:10184C000360FEE7704700BF00234FF461210C22B8
:10185C0010B50948094CC0E90113C0E90333C0E9CC
:10186C0005230460C36101F02DFA00B910BDBDE879
:10187C001040FFF77BBF00BF201000200038014054
:10188C0070B500242A4B026886B09A42CDE9024416
:10189C00CDE9044401D006B070BD03F558439A69F4
:1018AC00054642F480429A619A69224802F48042C9
:1018BC000092009A9A69204E42F004029A619B6948
:1018CC004FF4007203F004030193019903210223E6
:1018DC00059102A9CDE9022300F000FE4FF48062CD
:1018EC000023144802A9CDE90223049400F0F6FD6C
:1018FC0080224FF4405311493046C6E90014C6E922
:10190C000444B460B461F260F36100F05FFC58B958
:10191C00002225201146EE63756200F0F3FB2520B2
:10192C0000F02EFC06B070BDFFF720FFF0E700BF03
:10193C000038014000080140DC0F00205800024034
:10194C00FFF7D0BCFFF7D6BCFFF7DABCFFF7DEBC65
:10195C00FFF778FF0B480C490C4A002302E0D458DF
:10196C00C4500433C4188C42F9D3094A094C0023DF
:10197C0001E013600432A242FBD302F0DDF8FFF762
:10198C00E3FE70470000002044040020643F000880
:10199C004404002074100020FEE7000038B54FF41A
:1019AC007A730D4A054611780C4AB3FBF1F31268B1
:1019BC00B2FBF3F000F0F2FB08B90F2D01D90120B6
:1019CC0038BD0446024629464FF0FF3000F09AFB22
:1019DC00034B20461D6038BD0C0000200800002081
:1019EC0010000020074A08B51368032043F01003C9
:1019FC00136000F075FB0F20FFF7D0FFFFF7B8FE68
:101A0C00002008BD00200240034A044B11681B78DB
:101A1C000B441360704700BF681000200C000020BE
:101A2C00014B1868704700BF6810002000287DD05B
:101A3C0038B590F820300446002B74D02268136817
:101A4C0043F001031360FFF7EBFF054604E0FFF7DB
:101A5C00E7FF401B0A285DD823685A68D107F6D5E2
:101A6C001A6822F002021A60FFF7DAFF054604E05A
:101A7C00FFF7D6FF401B0A284CD823685A689207F8
:101A8C00F6D4227E0025012A1A684FF0010C0CBFF7
:101A9C0042F0800222F080021A60627E2846012AFF
:101AAC001A680CBF42F0400222F040021A60A27E7B
:101ABC00012A1A680CBF42F0200222F020021A60A0
:101ACC00E27E012A1A680CBF22F0100242F01002CA
:101ADC001A60227F012A1A680CBF42F0080222F019
:101AEC0008021A60627F012A1A680CBF42F00402D5
:101AFC0022F004021A60D4E902210A4321690A4344
:101B0C0061690A43616801390A43DA61656284F8E4
:101B1C0020C038BD0522636A012043F400336362A0
:101B2C0084F8202038BDFFF71FFD87E701207047A0
:101B3C0090F820200346013A012A05D95A6A01205F
:101B4C0042F480225A6270474FF0010C036830B4A3
:101B5C00D3F80042486944EA0C04C3F80042D3F8B5
:101B6C001C4200F01F020CFA02F2CD6924EA0204B6
:101B7C00C3F81C42D443002D3FD1D3F80C52D1F8FA
:101B8C000CC02540C3F80C528D8803EBC00045EA0D
:101B9C000C45C0F84052D1F808C00D8845EA0C45F8
:101BAC00C0F84452886910BBD3F804022040C3F833
:101BBC0004020869A8B9D3F814020440C3F814420B
:101BCC00096A012904D1D3F81C120A43C3F81C2258
:101BDC00D3F80022002030BC22F00102C3F800220E
:101BEC007047D3F814021043C3F81402E8E7D3F893
:101BFC0004021043C3F80402DBE7012DD2D1D3F861
:101C0C000C52D1F800C01543C3F80C528D8803EB6D
:101C1C00C00045EA0C45C0F84052D1F808C08D8987
:101C2C0045EA0C45C0F84452BCE700BF70B590F8CB
:101C3C0020300446012B06D00126436A43F40023CE
:101C4C004362304670BDDEB20223026880F8203059
:101C5C00136823F001031360FFF7E2FE054604E06E
:101C6C00FFF7DEFE431B0A2B08D823685B6813F0D2
:101C7C000103F5D11E466362304670BD0522636ACE
:101C8C00304643F40033636284F8202070BD00BFFB
:101C9C00844630B490F82000DCF80050013801285C
:101CAC00AC683AD814F0E05F08D130BCDCF82430D2
:101CBC00012043F40013CCF8243070470120C4F306
:101CCC000164A04018608B6883B3C86803434868FC
:101CDC0043EAC00304F1180000012B500B6905EB1B
:101CEC00041CCCF88431097D2301012905D1DCF8D1
:101CFC00841141F48071CCF8841151682B44C3F8E1
:101D0C008C111268002030BCC3F88821DCF88031BB
:101D1C0043F00103CCF880317047DCF8243001200B
:101D2C0030BC43F48023CCF824307047CB6808686F
:101D3C0043EA405004F118031B01E850CEE700BF02
:101D4C00844690F820000138012875D8F0B5DCF8ED
:101D5C00000051B9C468A7070AD1DCF8243001206F
:101D6C0043F40013CCF82430F0BD0469A607F4D07A
:101D7C0000EB011EDEF8B0510C0105F00405956076
:101D8C00002D61D0DEF8B051ED085560DEF8B05191
:101D9C00204405F00205D560DEF8B4512D074CBF88
:101DAC000825DEF8B451DEF8B46158BF05F00F0514
:101DBC001561DEF8B451D0F8B871C6F307262D0CB6
:101DCC00966155611F70DCF800202244D2F8B821CE
:101DDC00120A5A70DCF800202244D2F8B821120CF6
:101DEC009A70DCF800202244D2F8B821120EDA7076
:101DFC00DCF800202244D2F8BC211A71DCF8002057
:101E0C002244D2F8BC21120A5A71DCF80020224478
:101E1C00D2F8BC21120C9A71DCF800202244D2F8C2
:101E2C00BC21120EDA71DCF8002091B9D368084697
:101E3C0043F02003D360F0BDDCF82430012043F4E0
:101E4C008023CCF824307047DEF8B0516D0D15604E
:101E5C009CE71369002043F020031361F0BD00BF21
:101E6C00704700BF704700BF704700BF704700BF8E
:101E7C00704700BF704700BF704700BF704700BF7E
:101E8C00704700BF704700BF704700BF2DE9F84F87
:101E9C00036805465C69D3F8048014F001069F685A
:101EAC00D3F80CB0D3F810A0D3F8189025D017F0B5
:101EBC00010640F08F804FF400524FF48041F8053A
:101ECC000DD54FF480702B689860BB0500F1BE8077
:101EDC00780500F1E4803B0540F1F0800E46F803F4
:101EEC000BD54FF480322B68B9039A6000F1BA809D
:101EFC007A0340F1CF8046F40046270702D51BF049
:101F0C00100F61D1600703D51BF0080F40F08C80D7
:101F1C00A10704D52B68DB689A0740F08C80630618
:101F2C0002D51AF0100F49D1A70602D51AF0080FE6
:101F3C0073D1E00603D52B681B69990762D1A20304
:101F4C0002D518F0100F61D1E30302D518F0080F79
:101F5C0075D1270405D518F0040F06D12B6804227F
:101F6C005A60002E46D1BDE8F88FE00504D519F073
:101F7C00010F18BF46F00106A10504D519F0020F98
:101F8C0018BF46F00206620504D519F0040F18BFFD
:101F9C0046F004062305E1D519F07009DED0B9F13D
:101FAC00400F00F09A8061D8B9F1200F00F08380C7
:101FBC00B9F1300F68D146F020065FE010222B6893
:101FCC0046F480661A61AFE710222B6846F400765F
:101FDC00DA6097E701229A60BB073BD47E0760D496
:101FEC0017F008066ED04FF440524FF4A0414FF456
:101FFC00805664E76B6A28461E436E62FFF744FF07
:10200C00BDE8F88F2846FFF7E7F898E710222B6811
:10201C0028465A60FFF734FF96E708222B682846BB
:10202C001A61FFF72BFF84E708222B682846DA6039
:10203C00FFF722FF6CE72846FFF786F86FE70822C8
:10204C002B6828465A60FFF71DFF82E72846FFF7EA
:10205C0009FF44E7FFF704FF00264FF400524FF44A
:10206C0080412CE72846FFF7FFFE46E7B9F1500FF9
:10207C001ED0B9F1600F08BF46F480762B689A69C0
:10208C0022F070029A616AE7B9F1100FF6D146F0AE
:10209C000806F3E73B031CD546F480362DE71646BD
:1020AC001DE74FF420524FF490414FF4006606E7C1
:1020BC0046F08006E2E746F01006DFE72846FFF719
:1020CC00D7FE0CE7FFF7D2FE4FF400524FF48041DD
:1020DC00F5E62846FFF7CEFE0FE746F04006CDE7C3
:1020EC004FF6FF0C06490302CA6803F4E06302EAE8
:1020FC000C02134343F0BF6343F40033CB607047CF
:10210C0000ED00E01C4B00B5DB68C3F30223C3F108
:10211C00070EBEF1040F03F1040C28BF4FF0040EA0
:10212C00BCF1060F1BD94FF0FF3C033B0CFA03FC30
:10213C0022EA0C024FF0FF3C0CFA0EFC21EA0C01D7
:10214C009940002841EA02010CDB090100F16040D2
:10215C00C9B200F5614080F800135DF804FB002261
:10216C001346E7E7054B00F00F000901C9B2034421
:10217C0019765DF804FB00BF00ED00E0FCEC00E01C
:10218C00002807DB012300F01F01034A40098B40A4
:10219C0042F82030704700BF00E100E00138B0F198
:1021AC00807F0FD24FF0E0234FF0F00C002207217C
:1021BC0010B4054C586184F823C010469A6110BCC9
:1021CC00196170470120704700ED00E070B30346C1
:1021DC00022230B54FF0010C0024006883F8212056
:1021EC000268DD6822F47F5ED3E901210A431049BD
:1021FC002A43104D0144A5FB0151090989001964BA
:10220C0019692EF0300E0A4359690A4399690A4339
:10221C00D9690A43084942EA0E02D96302609C63F9
:10222C0083F8204083F821C0204630BD0120704740
:10223C00F8FFFDBFCDCCCCCC00000240844690F81A
:10224C002000012840D030B501249CF821008CF8E6
:10225C002040A0425FFA80FE04D000238CF820308E
:10226C00022030BD02208CF821000020DCF8004058
:10227C00CCF838002568DCF8400025F00105256015
:10228C00DCF83C500EFA00F068606360DCF8043057
:10229C00102BDCF82C300BBFA260A160E160E26077
:1022AC004BB1236843F00E0323602368002043F0F6
:1022BC000103236030BD236823F0040323602368EB
:1022CC0043F00A032360F0E70220704790F82120C6
:1022DC000346022A06D0042100220120996383F8C8
:1022EC002020704700B54FF0010E4FF0000C026833
:1022FC00116821F00E011160116821F001011160CB
:10230C00D0E90F120EFA02F24A6083F821E083F84A
:10231C0020C060465DF804FB90F821200346022A99
:10232C0003D0042201209A637047026810B511682B
:10233C001C4821F00E0111601168824221F001014C
:10234C00116024D018498A421DD014318A4220D001
:10235C0014318A4220D014318A4220D014318A425E
:10236C000CBF4FF480124FF08072012100240F48F3
:10237C0042605A6B83F8211083F820402AB118462A
:10238C009047204610BD1022EFE7104610BD0122E9
:10239C00EBE74FF48072E8E74FF48052E5E74FF437
:1023AC008032E2E7080002401C00024000000240BC
:1023BC00042270B4C66B016C346803688A402242F4
:1023CC001D681FD06A071DD51A68910603D41A68B8
:1023DC0022F004021A603F4A934252D014329342C4
:1023EC0062D01432934269D0143293426CD01432BE
:1023FC0093425ED0143293420CBF4FF480034FF0E3
:10240C0080633FE002228A40224222D0AA0720D5D4
:10241C001A68910606D401211A6822F00A021A6081
:10242C0080F821102B4A934233D01432934243D07C
:10243C001432934245D01432934237D01432934223
:10244C0045D0143293420CBF4FF400134FF000737D
:10245C0020E008228A40224219D02A0717D51A6890
:10246C00002422F00E021A600123026B03FA01F120
:10247C007160836380F8204080F821303AB170BCE1
:10248C00104704231449C26A4B60002AF7D170BC70
:10249C00704702230021104C826A636080F8201080
:1024AC00002AF4D070BC10474023EBE74FF40053E4
:1024BC00F0E74FF48023E5E72023EBE74FF480634C
:1024CC00E0E74FF40073E5E74FF48043DAE74FF4AD
:1024DC000033DFE708000240000002402DE9F04F16
:1024EC000E6883B0002E00F0B58000227A4F924621
:1024FC0013467A4DDFF8E88106E0013336FA03F42F
:10250C0002F1040200F0A68001249C4034EA060E7D
:10251C0004EA060CF1D14E68122E00F29E80122EA7
:10252C001AD8DFE806F0A7B9B5CE19191919191977
:10253C0019191919191919B1BC00DFF8A8E1764558
:10254C0000F098800EF5702E764500F09380AEF575
:10255C00801E764500F08E80BCF1FF0F9CBF864636
:10256C0093464FF00F0684BF00F1040EA2F1200B2E
:10257C00DEF800400AFA0BF906FA0BFB24EA0B040E
:10258C0044EA0904CEF800404C6814F0805F79D01E
:10259C00D7F818E003F003094EF0010EC7F818E065
:1025AC00D7F818E04FEA89090EF0010ECDF804E0D7
:1025BC00DDF804E023F0030E0EF1804E0EF5803EA4
:1025CC00DEF808B006FA09F62BEA0606DFF818B1B1
:1025DC00584513D00BF5806B58456BD0DFF80CB118
:1025EC00584560D0DFF808B158450CBF4FF0030BCD
:1025FC004FF0040B0BFA09F946EA0906CEF808600D
:10260C00AE6814F4801F14BF46EA0C0626EA0C06CA
:10261C00AE60EE6814F4001F14BF46EA0C0626EAFE
:10262C000C06EE606E6814F4003F14BF46EA0C060C
:10263C0026EA0C066E6014F4803F2C681FD044EA26
:10264C000C042C600E68013336FA03F402F1040218
:10265C007FF45AAF03B0BDE8F08F46450AD07FF641
:10266C006CAFDFF890E0764504D00EF5803E7645F1
:10267C007FF472AF8E683EBB4FF0040A6CE724EA1D
:10268C000C042C600E6838E7CC6804F1040A63E78C
:10269C00CC6804F1080A5FE7D1F80CA05CE7CC68C1
:1026AC0004F10C0A58E74FF0020B0BFA09F946EA51
:1026BC000906A3E74FF0010B0BFA09F946EA0906E4
:1026CC009CE74FF0000A47E7012E4FF0080A0CBFB9
:1026DC000461446140E700BF001002400004014067
:1026EC0000002210000012100008014000100140F0
:1026FC0000140140000031108368194214BF0120FE
:10270C000020704702B9090401617047C36801EAEF
:10271C00030221EA030141EA02410161704700BF53
:10272C00002800F0B6812DE9F04103680446DD076E
:10273C0082B035D59A494A6802F00C02042A00F09E
:10274C00EF804A6802F00C02082A00F0E58063680A
:10275C00B3F5803F10D0002B00F00C81B3F5A02F07
:10276C0000F082818E4B1A6822F480321A601A684B
:10277C0022F480221A6004E0894A136843F48033FF
:10278C001360FFF74DF9864E054605E0FFF748F953
:10279C00401B642800F2EA8033689A03F6D523685C
:1027AC009F0728D57E4A516811F00C0F00F08D80E0
:1027BC00516801F00C01082900F083802369002B7B
:1027CC0000F018810122774B754E1A60FFF728F93B
:1027DC00054605E0FFF724F9401B022800F2C680ED
:1027EC0033689807F6D53368626923F0F80343EA37
:1027FC00C203336023681A071FD45D0742D5684BA8
:10280C00DA69D0007DD50025674E3368D90540F1D3
:10281C009D80E368012B00F0FE80002B00F0CA8045
:10282C00052B5F4B1A6A00F02C8122F001021A6210
:10283C001A6A22F004021A62F2E0A369002B4FD04C
:10284C000122584B564EC3F88024FFF7E9F8054691
:10285C0005E0FFF7E5F8401B022800F28780736A59
:10286C009B07F6D5514B524A1B68A2FB03235B0A0C
:10287C00019300BF019B5A1E0192002BF9D12368D2
:10288C005D07BCD4E069C0B1454D6B6803F00C0327
:10289C00082B00F0D8800022424B02281A6600F068
:1028AC00FA80FFF7BDF8044604E0FFF7B9F8001B07
:1028BC0002285BD82B689B01F7D4002002B0BDE83E
:1028CC00F0815268D6033FF579AF354A1268950707
:1028DC0030D52269012A2DD0012002B0BDE8F0814B
:1028EC00304A2F4EC2F88034FFF79AF8054604E0C0
:1028FC00FFF796F8401B022838D8736A9F07F7D465
:10290C00BDE7DA69012542F08052DA61DB6903F038
:10291C0080530093009B77E74A68D0037FF517AF8D
:10292C001F4A126891037FF53BAF6268002A7FF45F
:10293C0037AFD1E71A4960690A6822F0F80242EA17
:10294C00C0020A601A077FF558AF76E7336843F484
:10295C0080733360FFF764F807463368DA053FF598
:10296C0058AFFFF75DF8C01B6428F6D9032002B0FE
:10297C00BDE8F0810A4D2B6823F480332B602B6863
:10298C0023F480232B60FFF74BF8064604E0FFF797
:10299C0047F8801B6428E9D82B689B03F7D4FEE624
:1029AC00001002400000424200700040080000206D
:1029BC00D34D6210504E41F28838336A23F0010334
:1029CC003362336A23F004033362FFF729F80746B6
:1029DC0004E0FFF725F8C01B4045C7D8336A9807B9
:1029EC00F7D4002D3FF44EAF434AD36923F0805304
:1029FC00D36147E7414A404E1360FFF711F8054693
:102A0C0004E0FFF70DF8401B0228AFD83368990794
:102A1C00F7D42368EFE6384A136A43F001031362D4
:102A2C00FEF7FEFF41F288380646334F04E0FEF70E
:102A3C00F7FF801B404599D83B6A9B07F7D5002DC3
:102A4C003FF420AFD0E701283FF438AF6B68226A1F
:102A5C0003F4803191427FF43FAF606A03F470134A
:102A6C00181A18BF012029E703F18043A3F53C3362
:102A7C001A6842F480221A601A6842F480321A6092
:102A8C007FE642F004021A621A6A42F001021A62EC
:102A9C00C6E701207047FEF7C3FF064605E0FEF7C8
:102AAC00BFFF801B02283FF661AF2B689901F6D45B
:102ABC00236AB3F5803F05D16A68A16822F400321D
:102ACC000A436A6001200C4D616A6A680B4322F468
:102ADC0074120A4913436B600866FEF7A1FF0446A3
:102AEC0005E0FEF79DFF001B02283FF63FAF2B6869
:102AFC009A01F6D5E1E600BF001002400000424208
:102B0C00002800F0A180564A2DE9F04113680446D4
:102B1C0003F007038B420D460CD2136823F0070316
:102B2C000B431360136803F007038B4202D00120A0
:102B3C00BDE8F08123689E0714D5580704D5494990
:102B4C004A6842F4E0624A60190704D545494A686C
:102B5C0042F460524A604349A0684A6822F0F0028D
:102B6C0002434A60DA0720D562683E4B012A1B6893
:102B7C006CD0022A65D09E07D9D53A4E41F28838DE
:102B8C00736823F0030313437360FEF749FF074692
:102B9C0004E0FEF745FFC01B40455AD873686268D5
:102BAC0003F00C03B3EB820FF3D12D4A136803F03F
:102BBC000703AB4209D9136823F007032B431360B7
:102BCC00136803F00703AB42B1D12368580706D54D
:102BDC002449E0684A6822F4E06202434A6019071B
:102BEC0007D5204A2169536823F4605343EAC10393
:102BFC0053601C494A6802F00C03082B10D01A4B86
:102C0C00184A1A4852681A49C2F30312805C194ACE
:102C1C00C34008681360FEF7C1FE0020BDE8F081D8
:102C2C001548C2F38343D203C35C14D50E484A68DB
:102C3C0000FB03F31149C2F340428A5CB3FBF2F38D
:102C4C00DEE79F0199D472E7012070479B0394D46F
:102C5C006DE703206CE70A4A02FB03F3D0E700BFE1
:102C6C00002002400010024000127A00B03D000823
:102C7C001000002008000020C83D0008D83D0008C6
:102C8C0000093D00044B054A5B680549C3F3022368
:102C9C00CB5C1068D8407047001002400800002040
:102CAC00C03D0008044B054A5B680549C3F3C223C9
:102CBC00CB5C1068D8407047001002400800002020
:102CCC00C03D0008002865D0F8B590F841300446A6
:102CDC0003F0FF02002B55D0D4E9022724212069F0
:102CEC0023680243606984F841100243D868A669DE
:102CFC0020F40050D8601969274D21F44051394314
:102D0C001961D968AB4221F4B05121F00C0142EAAF
:102D1C000102DA605A6922F4407242EA06025A61F0
:102D2C0035D0FFF7AFFF626800EB8003920003EB36
:102D3C008303B3FBF2F3642600254FF0200C1748F5
:102D4C002168A0FB0372520906FB12331B013233BC
:102D5C00A0FB0303120102EB53138B600B69284693
:102D6C0023F490430B614B6923F02A034B61CB682E
:102D7C0043F40053CB60656484F841C084F842C0CE
:102D8C006563F8BD80F84020FEF77AFDA4E7FFF7F5
:102D9C0089FFC8E701207047003801401F85EB51BF
:102DAC002DE9F8431D4690F84130202B6BD1884615
:102DBC0009B1174612B90120BDE8F88321234FF061
:102DCC0000090446C0F8449080F84130FEF728FE14
:102DDC00A3680646B3F5805FA784E78456D0E38CDE
:102DEC009BB2002B7BD02368691C1BD11A6812067E
:102DFC00FCD5B8F1000F41D018F8012B5A60E28CC9
:102E0C00013A92B2E284E28C92B2002AECD1681CB4
:102E1C0042D11A685106FCD5202384F84130002099
:102E2C00BDE8F8831A681706E3D42DB1FEF7F8FD58
:102E3C00801B85422368D7D203F10C0252E8002F85
:102E4C0022F4D07203F10C0040E800210029F3D1E8
:102E5C0003F1140252E8002F22F0010203F11400D6
:102E6C0040E800210029F3D1202384F8401084F895
:102E7C00413084F842300320BDE8F88339F8022B46
:102E8C00C2F30802BAE70220BDE8F8832369002BDD
:102E9C00A5D1C1469846A2E71A685206BCD42DB1FA
:102EAC00FEF7BEFD831B9D422368B0D203F10C02DA
:102EBC0052E8002F22F4D07203F10C0040E80021FC
:102ECC000029F3D103F1140252E8002F22F0010281
:102EDC0003F1140040E800210029F3D1C4E7236872
:102EEC0095E700BF704700BF08B5406A0368596991
:102EFC0090F84120212A0BD0596990F84220222ABF
:102F0C001ED0436C43F010034364FEF71FFD08BD55
:102F1C000906F1D50022C28403F10C0252E8002FFD
:102F2C0022F0C00203F10C0C4CE800210029F3D173
:102F3C00202280F84120596990F84220222AE0D1C1
:102F4C004A06DED50022C28503F10C0252E8002F9E
:102F5C0022F4907203F10C0C4CE800210029F3D1FF
:102F6C0003F1140252E8002F22F0010203F1140CB9
:102F7C004CE800210029F3D1026B012A05D0202254
:102F8C00002380F842200363BBE703F10C0252E8F4
:102F9C00002F22F0100203F10C0C4CE80021002948
:102FAC00F3D1ECE708B50023406AC385C384FEF770
:102FBC00CDFC08BD08B50123406A4363036B012BAC
:102FCC0002D0FFF78FFF08BD818D4908FEF7B8FCD2
:102FDC0008BD00BF08B50368406A1A6812F02002E9
:102FEC002BD10368C28503F10C0252E8002F22F4A6
:102FFC00807203F10C0C4CE800210029F3D103F191
:10300C00140252E8002F22F0010203F1140C4CE8D8
:10301C0000210029F3D103F1140252E8002F22F011
:10302C00400203F1140C4CE800210029F3D12022BA
:10303C0080F84220026B012A07D000234363036B04
:10304C00012B0FD0FEF780FC08BD03F10C0252E8F7
:10305C00002F22F0100203F10C0C4CE80021002987
:10306C00F3D1EAE7818DFEF76BFC08BD8368B3F5FD
:10307C00805F45D0826A002B3AD003685B6803F00E
:10308C007F031370836A01338362C38D013B9BB250
:10309C00C385002B33D14FF0200C026800B5D168EA
:1030AC0083B021F02001D160D16821F48071D1600E
:1030BC00516921F00101516180F842C04363016BF9
:1030CC00012928D1036302F10C0353E8003F23F0DC
:1030DC00100302F10C0C4CE800310029F3D11368F9
:1030EC00DB0622D4818DFEF72BFC03B05DF804FBCC
:1030FC000369002BC1D103685B681370C2E770478A
:10310C0003696BB90268836A5268C2F3080223F838
:10311C00022B8362B9E7FEF717FC03B05DF804FBE2
:10312C000368826A5B681370ACE700230193136831
:10313C00019353680193019BD4E700BF30B503683A
:10314C0004461A6883B012F00F0FD9685D696FD10D
:10315C00950602D58D0600F1B280206B01280BD0AC
:10316C00100602D50D0600F1B480500602D54A06B1
:10317C0000F1CE8003B030BDD506F1D5C806EFD531
:10318C00002201921A6801925A680192019A5A69B6
:10319C00550640F11781E06B0268526892B2002A22
:1031AC00E8D0A18D9142E5D9E2858269202A36D0FA
:1031BC0003F10C0252E8002F22F4807203F10C058B
:1031CC0045E800210029F3D103F1140252E8002F45
:1031DC0022F0010203F1140545E800210029F3D186
:1031EC0003F1140252E8002F22F0400203F11405FF
:1031FC0045E800210029F3D1202284F842202163E4
:10320C0003F10C0252E8002F22F0100203F10C051E
:10321C0045E800210029F3D1FFF758F8A18D0223CE
:10322C006363E38D2046C91A89B2FEF789FBA1E7D7
:10323C0005F0010501F4907028438ED0D00705D518
:10324C00C80503D5606C40F001006064500731D5AF
:10325C004DB1606C40F002006064900703D5606C67
:10326C0040F004006064100707D501F020002843EB
:10327C0003D0606C40F008006064606C00283FF480
:10328C0079AF900609D5890607D594F84220222AF1
:10329C0003D12046FFF7EAFE23685A69656C02F0F9
:1032AC00400205F0080515433DD12046FEF74EFBC4
:1032BC0065645FE79007D6D5002DD0D1D3E790F8A1
:1032CC004230222B7FF456AF03B0BDE83040FFF7FD
:1032DC00CDBE94F84120212A7FF44CAFA268B2F500
:1032EC00805F00F0AA80226A511C216212785A6019
:1032FC00E28C013A92B2E284002A7FF43BAFDA68A6
:10330C0022F08002DA60DA6842F04002DA6031E7DB
:10331C002021DA68204622F04002DA6084F841105D
:10332C00FEF710FB26E703F10C0252E8002F22F403
:10333C00907203F10C0040E800210029F3D103F155
:10334C00140252E8002F22F0010203F1140040E8AD
:10335C0000210029F3D1226B012A22D00022202146
:10336C0084F8421022635A69520627D503F11402DD
:10337C0052E8002F22F0400203F1140040E8002133
:10338C000029F3D1E06BC8B1324B4363FEF7C4FFA5
:10339C0000283FF4EFAEE06B436B03B0BDE8304068
:1033AC00184703F10C0252E8002F22F0100203F12F
:1033BC000C0040E800210029F3D1CFE72046FEF7AE
:1033CC00C5FAD7E6E18DE28D89B292B2002A3FF4BC
:1033DC00D1AEA28D511A89B200293FF4CBAE03F1C4
:1033EC000C0252E8002F22F4907203F10C0545E810
:1033FC0000200028F3D103F1140252E8002F22F030
:10340C00010203F1140545E800200028F3D1202225
:10341C0084F84220206303F10C0252E8002F22F0C2
:10342C00100203F10C0545E800200028F3D102231B
:10343C0020466363FEF784FA9CE62269002A7FF437
:10344C0052AF226A32F8021BC1F3080159602262A2
:10345C004EE700BFB12F0008F0B500254FF0220E4B
:10346C000446456480F842E0816282851346C06B55
:10347C000A46DFF878C021681D4F1E4E83B0043118
:10348C00C0E90AC7C0E90C65FEF7D8FE23680195B0
:10349C001968226901915968019101995AB103F196
:1034AC000C0252E8002F42F4807203F10C0040E849
:1034BC0000210029F3D103F1140252E8002F42F04D
:1034CC00010203F1140040E800210029F3D103F1BB
:1034DC00140252E8002F42F0400203F1140141E8BB
:1034EC0000200028F3D103B0F0BD00BFE12F00088D
:1034FC00C12F0008F52E000890F842C0BCF1200F37
:10350C0006D139B330B583B022B9012003B030BD38
:10351C000220704701250023056343630446FFF72F
:10352C009BFF0028F2D1236BAB42EED122680190B5
:10353C001368019353680193019B02F10C0353E848
:10354C00003F43F0100302F10C0444E80031002961
:10355C00F3D1DBE70120704701707047704700BF63
:10356C0000224FF48061C0F804240160C0F80824E4
:10357C00C0F80C24704700BF704700BFD0F804346B
:10358C000268934215D0D0F80C3410B45C1C034480
:10359C00C0F80C441971D0F8043410BC0133C0F8D5
:1035AC000434D0F80C34934224BF0023C0F80C34FC
:1035BC00704770470346D0F80824511CC0F8081413
:1035CC00D0F80414024401391079C3F80414D3F868
:1035DC00082419688A4224BF0022C3F808247047C3
:1035EC00D0F80404003818BF0120704710B54FF014
:1035FC00000C8E460446614600F801EB2BE05A00A5
:10360C00D3B252B2002A33DB5A00D3B252B2002AE0
:10361C0034DB5A00D3B252B2002A35DB5A00D3B293
:10362C0052B2002A36DB5A00D3B252B2002A37DB30
:10363C005B00DAB25BB2002B01F10101ACBF5200AE
:10364C008EEA42020CF1020CB1F5807F00F8012FDA
:10365C005FFA8CFC2ED00B0627D463464FFA8CF203
:10366C00002ACCDA8EEA43035AB2002ADBB2CBDA58
:10367C008EEA43035AB2002ADBB2CADA8EEA43035B
:10368C005AB2002ADBB2C9DA8EEA43035AB2002AD4
:10369C00DBB2C8DA8EEA43035AB2002ADBB2C7DACD
:1036AC008EEA430253B2D2B2C5E78EEA0C0213463D
:1036BC0052B2D5E7204610BD704700BF00234370BF
:1036CC004AB101EB020C11F8012B534003449B78D7
:1036DC0061454370F7D17047407870474FF0010C4B
:1036EC00016080F80CC0C0F810247047704700BF10
:1036FC0001464FF4007251F80D0BFFF7FDBE00BFF1
:10370C00F8B5044608462168036809688B4200D066
:10371C00F8BD1646227BF2B14FF0000C6FF020077B
:10372C006FF0080584F80CC04FF400721F6004F2AF
:10373C000D211D60FFF7E0FE002EE9D00C3604F1E0
:10374C000C05264415F8011FD4F81004FFF716FFDA
:10375C00B542F7D1F8BD4FF0010C6FF020076FF0B8
:10376C00080584F80CC04FF400721F6004F10D01C1
:10377C001D60FFF7C1FE002ECAD006F5037604F5D6
:10378C000375264415F8011FD4F81004FFF7F6FE54
:10379C00B542F7D1F8BD00BF03680A681B689A42AE
:1037AC0000D070474268002AFBD0CB8C888C9BB22F
:1037BC00C01A104703680A681B689A4200D0704709
:1037CC008268002AFBD0CB8D888D9BB2C01A104723
:1037DC00026838B512680B68934200D038BD6FF0A0
:1037EC0008021A60CB8D8A8D0546D21A92B20C460D
:1037FC00FFF786FF0123204605F10D012B734FF4D3
:10380C000072BDE83840FFF777BE00BF10B5144614
:10381C0040F6B83392B20068FFF7C2FA204610BDEA
:10382C002DE9F0470546894614461F46FEF7F8F881
:10383C004FF0000806465CB1D5F81004FFF7D0FE37
:10384C0048B9FEF7EDF8821BBA4204F1FF34F2D905
:10385C004046BDE8F087D5F81004FFF7ABFE09F839
:10386C000800FEF7DDF8801B08F1010AB842D046CB
:10387C0004F1FF34DFD94046BDE8F08738B5044683
:10388C000D461146FFF768FE2046656038BD00BF47
:10389C0010B50446FFF762FE204610BD017070475C
:1038AC0082B000B585B00DF1180CCCE900230346AD
:1038BC00CDF80110BCE80300BCF800C0CDF8050041
:1038CC00ADF80DC093F800C05868CDF809100F2260
:1038DC0069468DF800C000F037F80F2005B05DF890
:1038EC0004EB02B0704700BF944630B5C1B00D4632
:1038FC0040F6B8334FF4807269464068644600F075
:10390C004FF808B941B030BD0F20DDF80530DDF8B7
:10391C0001202A602360BDF80D302381DDF80930C9
:10392C00636041B030BD00BF30B400244FF48075EB
:10393C00C0E9024445610461C0F82042C0E90012AC
:10394C0030BC7047704700BFF8B5154600F118063B
:10395C0004460F464FF482720021304600F010F9F5
:10396C004AF6AA232A4623833946A57604F11B007E
:10397C000335171DFDF772FB2A4631466068FFF7C9
:10398C009DFE6068FFF7A8FE2544287631463A462E
:10399C002068FFF73BFFA3683B44A360F8BD00BF62
:1039AC002DE9F04F154600F58E7883B04FF48272F6
:1039BC0004468A46404600211F46019500F0E0F877
:1039CC00FEF72EF800234FF0050B81461E461D46D0
:1039DC00C4F82032052B18D0FEF722F8A0EB090012
:1039EC00B84219D8D4F82032042BF3D8DFE803F00E
:1039FC005D4D3E2E030008EB05013B46012220687D
:103A0C00FFF70EFF0135C4F820B2E3682E1F2B44DC
:103A1C00B6F5807FE36004D90026304603B0BDE8DC
:103A2C00F08F6A1E41466068A518FFF747FE606874
:103A3C00FFF752FE95F81C31834247D000263046E2
:103A4C0023690133236103B0BDE8F08F4EB13246D8
:103A5C0008EB05013B462068FFF7E2FE361A0544E9
:103A6C00F5D104230026C4F82032B5E73B460122E9
:103A7C0008EB05012068FFF7D3FE0323621992F8C7
:103A8C001C610135C4F82032A6E73B4601222068B0
:103A9C0008EB0501FFF7C4FE631993F81C31AA2B40
:103AAC0024D00025D4F8203294E73B46012220682C
:103ABC0008EB0501FFF7B4FE631993F81C31AA2B30
:103ACC00EFD10123C4F820321D4485E7019BB3429A
:103ADC00A2D33246504604F21F11FDF7BFFA002361
:103AEC00304685F81C3103B0BDE8F08F0223013558
:103AFC00C4F8203270E700BF0B460146184600F0B0
:103B0C0009B800BF062008B500F08CF80120FDF7BD
:103B1C0093FE00BF8C4600B58646134671460220C4
:103B2C0062465DF804EB00F0C1B800BF014B1868A9
:103B3C00704700BF1400002070B50D4E0D4D761B64
:103B4C00B61006D0002455F8043B01349847A64221
:103B5C00F9D1094E094D00F019F9761BB61006D0B3
:103B6C00002455F8043B01349847A642F9D170BDA6
:103B7C00543F0008543F0008603F0008543F0008C1
:103B8C00830730B548D0541E002A3FD00346CAB232
:103B9C0001E0013C3AD303F8012B9D07F9D1032C2A
:103BAC002DD9CDB245EA05250F2C45EA054536D968
:103BBC00A4F1100222F00F0C03F1200EE6444FEAA0
:103BCC00121C03F1100242E9045542E9025510326D
:103BDC007245F8D10CF1010214F00C0F03EB021238
:103BEC0004F00F0C13D0ACF1040323F003030433E3
:103BFC00134442F8045B9342FBD10CF003042CB148
:103C0C00CAB21C4403F8012B9C42FBD130BD644664
:103C1C001346002CF4D1F9E703461446BFE71A46C5
:103C2C00A446E0E738B5154B1F281D6820D8D5F8F9
:103C3C00DC22044662B152F820304BB1012B15D076
:103C4C00591C0FD0002542F820509847284638BD03
:103C5C00284600F029F8224601462846BDE838409F
:103C6C0000F00EB8162301202B6038BD002038BDA3
:103C7C0016234FF0FF302B6038BD00BF140000201E
:103C8C0070B50026074D0446084611462E60FDF718
:103C9C00C9FD431C00D070BD2B68002BFBD02360EA
:103CAC0070BD00BF70100020FDF7BABD2DE9F047C4
:103CBC00DFF87CA00646DAF8000098460F469146DD
:103CCC0000F060F81B4B1B68D3F8484124B36568BF
:103CDC001F2D26DC5EB96B1C0235DAF80000636020
:103CEC0044F8257000F050F80020BDE8F08701235F
:103CFC0004EB8501C1F88890D4F88821AB401A43B5
:103D0C00022EC4F88821C1F80881E4D1D4F88C21A2
:103D1C001343C4F88C31DEE703F5A674C3F84841AD
:103D2C00D5E7DAF8000000F02FF84FF0FF30DCE7B1
:103D3C0040040020DC3D0008024B13B1024800F0A7
:103D4C0005B8704700000000653D000800230146DF
:103D5C001A461846FFF7AABF38B5084B084D5B1B2F
:103D6C009C1007D0043B1D44013C55F8043998477E
:103D7C00002CF9D1BDE8384000F00EB8643F0008C3
:103D8C00603F0008704700BF704700BFF8B500BF28
:103D9C00F8BC08BC9E467047F8B500BFF8BC08BC20
:043DAC009E46704778
:103DB00000000000000000000102030406070809DB
:103DC00000000000010203040203040506070809BD
:103DD0000A0B0C0D0E0F101001020000180000203D
:103DE00084040181B0B001000000000008B101812D
:103DF000B0B000840000000008B10181B0B00084C0
:043E000000000000BE
:103E040048C3FF7F01000000DCC3FF7FB0A902802C
:103E140074C4FF7FB0B0A880C4C4FF7F0100000059
:103E2400D0C4FF7FB0B0AA8008C5FF7FAE71B28056
:103E3400D8C5FF7F01000000D4C5FF7FAB3F3880A9
:103E440034C6FF7F0100000040C6FF7FB0B0AA80E7
:103E54007CC6FF7F010000002CC7FF7FAA0DB28043
:103E6400A4C7FF7FB0AF088044CAFF7F01000000F1
:103E740048CAFF7FAD3F0280B4CCFF7F0100000041
:103E840090CEFF7F00840480A4CEFF7F0100000059
:103E9400A0CEFF7FB0AD04807CD1FF7F008404807E
:103EA400A4D1FF7F44FFFF7FA8D1FF7F48FFFF7F9E
:103EB400B4D1FF7F0100000098D2FF7FB0A80B802F
:103EC400B0D3FF7FF784098024D4FF7F0100000072
:103ED40050D4FF7FB0B0AA8020D5FF7FB0AE0D8054
:103EE400B4D5FF7F0100000020F8FF7FAB08B1804C
:103EF400B0F8FF7F01000000E0F8FF7FA908B1805F
:103F040014F9FF7FB0B0A88020F9FF7FB0B0AE8075
:103F140074F9FF7FA908B18080F9FF7F01000000D8
:103F240088F9FF7FB8FEFF7FC8F9FF7FA93F0080B3
:103F340000FAFF7F0100000018FAFF7FAB08B18090
:103F440068FAFF7FB0AF0280B8FBFF7F010000007A
:0C3F5400453D00083101000899140008E8
:043F60000D01000847
:103F640000000000010000000024F4000100000033
:103F740010000000180000200000000004030020CE
:103F84006C030020D40300200000000000000000A7
:103F9400000000000000000000000000000000001D
:103FA400000000000000000000000000000000000D
:103FB40000000000000000000000000000000000FD
:103FC40000000000000000000000000000000000ED
:103FD40000000000000000000000000000000000DD
:103FE40000000000000000000000000000000000CD
:103FF40000000000000000000000000000000000BD
:1040040000000000000000000000000000000000AC
:10401400000000000000000000000000000000009C
:1040240001000000000000000E33CDAB34126DE639
:10403400ECDE05000B0000000000000000000000A2
:10404400000000000000000000000000000000006C
:10405400000000000000000000000000000000005C
:10406400000000000000000000000000000000004C
:10407400000000000000000000000000000000003C
:0443A4006C10002079
:040000050800195D79
:00000001FF
